:100000000C942A000C94B0000C94B0000C94B00036
:100010000C94B0000C94B0000C94B0000C94B000A0
:100020000C94B0000C94B0000C94B0000C94B00090
:100030000C94B0000C94B0000C94B0000C94B00080
:100040000C94B0000C94B0000C94B0000C94B00070
:100050000C94B00011241FBECFE5D8E0DEBFCDBFA9
:0C0060000E9436000C943400F894FFCF8E
:10006C008B9AA29AA79A8A98B898BC9882E090E04A
:10007C000E947600892B29F083E090E00E94A50075
:10008C0004C083E090E00E948E0084E090E00E9427
:10009C006A00892B29F087E090E00E949A0004C046
:1000AC0087E090E00E94820080E090E00E946A006D
:1000BC00892B29F082E090E00E949A00D7CF82E051
:0800CC0090E00E948200D2CFF7
:1000D40026B330E0A90102C0559547958A95E2F709
:0800E400CA01817099270895FB
:1000EC0020B330E0A90102C0559547958A95E2F7F7
:0800FC00CA01817099270895E3
:1001040095B321E030E002C0220F331F8A95E2F755
:080114002095292325BB089565
:10011C0092B321E030E002C0220F331F8A95E2F740
:08012C002095292322BB089550
:1001340095B321E030E002C0220F331F8A95E2F725
:06014400292B25BB0895E4
:10014A0092B321E030E002C0220F331F8A95E2F712
:06015A00292B22BB0895D1
:040160000C940000FB
:00000001FF
